:020000040800F2
:1000000000000120CD4500081D4600081D460008DF
:100010001D4600081D4600081D460008000000009F
:100020000000000000000000000000001D46000865
:100030001D460008000000001D460008A538000805
:10004000000000001D4600081D4600081D4600086F
:100050001D4600081D460008512D0008752D00089A
:10006000992D0008BD2D0008E12D00081D4600084F
:100070001D4600081D4600081D4600081D460008D4
:100080001D4600081D4600081D460008000000002F
:10009000000000000000000000000000052E000825
:1000A0001D4600081D4600081D4600081D460008A4
:1000B0001D4600081D4600081D4600081D46000894
:1000C0001D4600081D4600081D4600081D46000884
:1000D0001D4600081D4600081D46000800000000DF
:1000E000612E00081D4600081D46000800000000A3
:1000F0000000000000000000000000001D46000895
:10010000000000001D4600081D4600081D460008AE
:1001100000000000000000000000000000000000DF
:100120001D4600081D4600081D4600081D46000823
:100130001D46000800000000000000000000000054
:100140000000000000000000000000001D46000844
:100150001D4600081D4600081D4600081D460008F3
:100160001D4600081D4600080000000000000000B9
:10017000000000000000000000000000000000007F
:10018000000000000000000000000000000000006F
:040190001D46000800
:1001A00010B5054C237833B9044B13B10448AFF3B1
:1001B00000800123237010BD6400002000000000B7
:1001C0003456000808B5034B1BB103490348AFF38D
:1001D000008008BD000000006800002034560008C0
:1001E00001F0FF01102A2BDB10F0070F08D010F8E8
:1001F000013B013A8B422DD010F0070F42B3F6D1EC
:10020000F0B441EA012141EA014122F007047FF004
:1002100000070023F0E80256083C85EA010586EA5B
:10022000010685FA47F5A3FA87F586FA47F6A5FA97
:1002300087F68EB9EED1F0BC01F0FF0102F00702A3
:1002400032B110F8013B013A83EA010313B1F8D14E
:100250000020704701387047002D06BF354603382F
:10026000073815F0010F07D1013015F4807F02BF68
:10027000013015F4C03F0130F0BC0138704700BFB9
:1002800080B400AF034B01221A7000BFBD465DF879
:10029000047B704792A0002080B400AF034B012282
:1002A0001A7000BFBD465DF8047B704793A0002024
:1002B00080B400AF034B01221A7000BFBD465DF849
:1002C000047B704794A0002080B500AF0021082077
:1002D00002F07AFC0021082002F0C8FC08211B482B
:1002E00002F020FD082002F0A9FC0021092002F004
:1002F0006BFC0021092002F0B9FC0921144802F02E
:1003000011FD092002F09AFC00210A2002F05CFC99
:1003100000210A2002F0AAFC0A210E4802F002FD88
:100320000A2002F08BFC282003F03AF9172003F092
:1003300037F901F0E9FE00F085FC00F00DF800F05F
:1003400073F900F015FA00BF80BD00BFB1020008CC
:10035000990200088102000880B500AF074B002217
:100360001A70074B01221A70064B00221A70064BB6
:1003700000221A7000F0D2F800BF80BD8FA00020CC
:1003800090A0002091A000208EA0002080B400AF9B
:10039000024B1846BD465DF8047B70478000002084
:1003A00080B582B000AF00F001FC7860534B1B7841
:1003B000002B07D0002BC0F29680013B012B00F2EE
:1003C00092807AE04E4B1B78DBB2002B23D04C4B53
:1003D00000221A704B4B00221A70002000F0F4F932
:1003E00003467B707B780021184600F003FA7B7887
:1003F000002B09D0444B1B780133DAB2424B1A7000
:100400003E4B01221A7002E03C4B02221A703F4A16
:100410007B6813606BE03E4B1B78DBB2002B23D074
:100420003B4B00221A70374B01221A70012000F05A
:10043000CBF90346BB70BB780121184600F0DAF90E
:10044000BB78002B09D0304B1B780133DAB22E4B2E
:100450001A702A4B01221A7002E0284B02221A70ED
:100460002A4A7B68136042E02A4B1B78DBB2002BE0
:100470003DD0284B00221A70224B02221A70022013
:1004800000F0A2F90346FB70FB780221184600F049
:10049000B1F9FB78002B09D01B4B1B780133DAB282
:1004A000194B1A70154B01221A7002E0134B0222ED
:1004B0001A70164A7B68136019E0144B1B687A683F
:1004C000D31A372B15D9144B1B780133DAB2124BE0
:1004D0001A7000F023F800F0A7F800F049F9074B74
:1004E00000221A7005E0054B00221A7002E000BFDE
:1004F00000E000BF00BF0837BD4680BD8EA00020D1
:1005000092A0002091A000208FA0002098A00020A1
:1005100093A0002094A0002090A0002090B583B06C
:1005200000AF152000F052FB0346DAB23D4B1A70C3
:10053000152000F04BFB0346DAB23A4B5A70032009
:1005400000F044FB0346DAB2364B9A70354B9B7889
:10055000022B1CD0022B26DC002B02D0012B0BD04F
:1005600021E0304B1B781A462E4B5B7813449BB22C
:100570001AB22C4B9A8016E02A4B1B781A46294B4C
:100580005B78D31A9BB21AB2264B9A800BE0254BAC
:100590001B781A46234B5B7812FB03F39BB21AB20B
:1005A000204B9A8000BF032000F010FB0346DAB214
:1005B0001C4B1A731B4B1B7B18461A4BB3F90410C8
:1005C000184A430013440A46DA800023FB7121E0F5
:1005D000144B1B7BFA799A4219D0124BB3F90430B1
:1005E0009CB2152000F0F2FA034623449BB20A3B6A
:1005F0009BB2BB800B4BB3F90430B7F904209A428D
:10060000EBD0FB79074A5B001344BA88DA80FB79A8
:100610000133FB71FB79022BDAD900BF00BF0C3725
:10062000BD4690BD80A0002080B584B000AF00F032
:1006300029F900F09DF84D4B9B78022B0CD0022B32
:100640000DDC002B02D0012B03D008E02B23FB7321
:1006500008E02D23FB7305E02A23FB7302E02B2324
:10066000FB7300BF4023BB8123237B8114233B8189
:100670003E4B1B7818B27A8939894FF6FF7300F028
:100680009BF93A4B1B781BB2184600F0E9FA034677
:1006900008339AB23B8913443B817A893989F87BC4
:1006A0004FF6FF7300F036F93B890D333B812F4B3A
:1006B0005B7818B27A8939894FF6FF7300F07CF9BC
:1006C0002A4B5B781BB2184600F0CAFA034608337F
:1006D0009AB23B8913443B817A8939894FF6FF737B
:1006E0003D2000F017F93B890D333B817A89398928
:1006F0004FF6FF733F2000F00DF90023BB732CE091
:10070000BB7B9BB21A46920013441A4691001A46CC
:100710000B4613449BB23C33FB80BB7B41337B7164
:10072000FA8878794FF6FF73052100F0F3F8FA881C
:100730004FF6FF730D21292000F0ECF8BB7B0B4A2C
:100740005B001344B3F90600FA884FF6FF731921D2
:1007500000F032F9BB7B0133BB73BB7B022BCFD9DB
:1007600000BF00BF1037BD4680BD00BF80A0002085
:1007700080B500AF4FF6FF730A2205210E4800F046
:100780009DF80E4B1B7818B24FF6FF730A22142106
:1007900000F012F94FF6FF730A225821084800F0C2
:1007A0008DF8084B1B7818B24FF6FF730A226E21A2
:1007B00000F002F900BF80BD4C56000890A0002058
:1007C000505600088FA0002080B483B000AF0346CD
:1007D000FB71074B1B7BFA799A420CBF0123002364
:1007E000DBB218460C37BD465DF8047B704700BF8E
:1007F00080A0002080B586B002AF03460A46FB7198
:100800001346BB71002300939F237F228721002082
:1008100000F050F99123FB81FB79002B07D0FA8976
:100820004FF4FC631E21134800F048F81AE0FA89DF
:100830004FF478432321104800F040F8FB890F3330
:100840009AB24FF6FF7314210C4800F037F80C4BA6
:10085000B3F90400FB890F339AB24FF4FC634621CD
:1008600000F0AAF84FF4A04001F0C5FC00BF10371B
:10087000BD4680BD54560008605600086856000802
:1008800080A0002080B483B000AF00237B6007E02D
:10089000094A7B68002122F813107B6801337B60D2
:1008A0007B68B3F5A04FF3D300BF00BF0C37BD4644
:1008B0005DF8047B704700BF8000002080B586B0E3
:1008C00000AFF860084611461A4603467B810B4686
:1008D0003B811346FB807B89FB8200237B750EE006
:1008E0007B7DFA6813441878FB883A89F98A00F00E
:1008F00011F8FB8A0833FB827B7D01337B757B7D9E
:10090000FA6813441B78002BEAD100BF00BF1837E8
:10091000BD4680BD90B585B000AF0446084611467F
:100920001A462346FB710346BB800B467B80134669
:100930003B80FB791F2B38D9FB797E2B35D8FB798F
:10094000A3F1200213469B0013441A4A1344BB60D0
:100950000023FB7325E00023BB731CE0FB7BBA681C
:1009600013441B781A46BB7B42FA03F303F00103DE
:10097000002B0DD0FB7B9AB2BB88134498B2BB7B93
:100980009AB27B8813449BB23A88194600F0EEF87D
:10099000BB7B0133BB73BB7B072BDFD9FB7B0133F5
:1009A000FB73FB7B042BD6D900E000BF1437BD4698
:1009B00090BD00BF2857000890B587B000AF04462F
:1009C000084611461A462346FB800346BB800B4669
:1009D0007B8013463B80B7F90630002B06D13B885D
:1009E0007A88B9883020FFF795FF5EE00023FB7519
:1009F0000023BB75B7F90630002B27DA0123BB753E
:100A0000FB885B429BB2FB8020E0B7F90620284BB5
:100A100083FB02139910D317C91A0B469B000B4492
:100A20005B00D31A1BB2DAB2FB7D591CF975303268
:100A3000D2B218333B4403F8102CB7F906301C4AE5
:100A400082FB03129210DB17D31AFB80B7F9063032
:100A5000002BDADCBB88BB82BB7D002B08D03B8837
:100A60007A88B98A2D20FFF755FFBB8A0833BB82ED
:100A7000FB7D013BDBB2FB7413E097F913301833B5
:100A80003B4413F8100C3B887A88B98AFFF742FF81
:100A9000BB8A0833BB8297F91330DBB2013BDBB270
:100AA000FB7497F91330002BE7DA1C37BD4690BD75
:100AB0006766666690B486B000AF04460846114685
:100AC0001A462346FB800346BB800B467B801346B9
:100AD0003B807A88FB889A4205D2FB887B827B88A0
:100AE000FB807B8A7B803A88BB889A4205D2BB8890
:100AF0003B823B88BB803B8A3B80FB887F2B2BD88B
:100B0000BB889F2B2AD87B887F2B01D97F237B80B2
:100B10003B889F2B01D99F233B80BB88FB8216E03B
:100B2000FB8ADB01FB60FB88BB8209E0BA8AFB68B9
:100B300013440D493A8C21F81320BB8A0133BB8240
:100B4000BA8A7B889A42F1D9FB8A0133FB82FA8AFE
:100B50003B889A42E4D902E000BF00E000BF1837AA
:100B6000BD4690BC704700BF8000002080B483B0B9
:100B700000AF0346FB800B46BB8013467B80FB889F
:100B80007F2B0BD8BB889F2B08D8BB88DA01FB884A
:100B9000134405497A8821F8132000E000BF0C3780
:100BA000BD465DF8047B70478000002080B400AF34
:100BB000054B1B681433044A1360034B1B6818462B
:100BC000BD465DF8047B70479CA0002080B485B0D2
:100BD00000AF0346FB801A4B1B889B089AB2184B48
:100BE0001B8853409AB2164B1B88DB089BB25340BC
:100BF0009AB2134B1B885B099BB253409BB203F024
:100C00000103FB810E4B1B885B089BB21AB2B7F93C
:100C10000E30DB031BB213431BB29AB2084B1A808F
:100C2000074B1B88FA88B3FBF2F101FB02F29B1A17
:100C30009BB218461437BD465DF8047B704700BF71
:100C40000000002080B400AF044B4BF6E1421A8054
:100C500000BFBD465DF8047B704700BF0000002068
:100C600080B485B000AF0346FB80B7F90630002B97
:100C700001D1082324E00023FB730023BB73B7F9E1
:100C80000630002B12DA0123BB73FB885B429BB258
:100C9000FB800BE0FB7B0133FB73B7F906300B4A9B
:100CA00082FB03129210DB17D31AFB80B7F90630D0
:100CB000002BEFDCFA7BBB7B1344DBB2DB00DBB247
:100CC00018461437BD465DF8047B70476766666654
:100CD00080B400AF034B01221A7000BFBD465DF81F
:100CE000047B7047BCA0002080B400AF034B0122FE
:100CF0001A7000BFBD465DF8047B7047BDA00020A0
:100D000080B400AF034B01221A7000BFBD465DF8EE
:100D1000047B7047BEA0002080B500AF00210820F2
:100D200001F052FF0021082001F0A0FF08211A481D
:100D300001F0F8FF082001F081FF0021092001F0F7
:100D400043FF0021092001F091FF0921134801F020
:100D5000E9FF092001F072FF00210A2001F034FFB1
:100D600000210A2001F082FF0A210D4801F0DAFF7C
:100D70000A2001F063FF282002F012FC172002F085
:100D80000FFC01F0C1F900F00FF800F093FA0548EC
:100D900001F031FA00BF80BDD10C0008E90C000859
:100DA000010D00088000002080B582B000AF274B05
:100DB00000221A70264B00221A70264B00221A704D
:100DC000254B00221A80254B00221A704FF4204236
:100DD0000021234803F095FD0023FB8000237B7155
:100DE0002BE000233B7122E0FB885B089BB203F001
:100DF00007031C4AD35CFB707A7939791A48134689
:100E00005B0013440B44FA7800F813207A7939799F
:100E1000154813465B0013440B445B000344002257
:100E20005A70FB880133FB803B7901333B713B797E
:100E3000022BD9D97B7901337B717B79012BD0D9F6
:100E400000F072F900BF0837BD4680BDACA000209D
:100E5000ADA00020AEA00020B0A00020B6A00020D1
:100E60008000002008590008A0A0002080B400AF36
:100E7000024B1846BD465DF8047B70478000002099
:100E800080B586B002AF00F03FF9F8608E4B1B785A
:100E9000012B30D18D4B1B68FA68D31A452B40F2D9
:100EA0000F818B4B1B7819468A4B1B7818468A4A50
:100EB0000B465B000B4403445B00134400225A7052
:100EC000864B1B781946864B1B781846824A0B4680
:100ED0005B000B4403445B00134400225A70814BB7
:100EE00000221A70784B00221A7000F0E3F97E4855
:100EF00001F081F9E4E07D4B1B78DBB2002B09D0D7
:100F00007A4B00221A70FFF74FFF00F0D3F97648B2
:100F100001F071F9764B1B78DBB2002B21D0744BBA
:100F200000221A70734B1B780133DAB2714B1A70BE
:100F3000704B1B78022B0FD96E4B00221A706E4B30
:100F40001B780133DAB26C4B1A706B4B1B78012B98
:100F500002D9694B00221A7000F0ACF9624801F026
:100F60004AF9664B1B78DBB2002B7FD0564B1B78BF
:100F7000002B7BD1614B00221A705F4B1B781A4605
:100F80005C4B1B78194613465B0013440B445B0013
:100F9000514A1344BB60BB685B78002B66D1BB68C9
:100FA00001225A704F4B1B78002B0BD1524B1A78F1
:100FB000474B1A704F4B1A78464B1A70494B012217
:100FC0001A704EE0474B1B78012B4AD14A4B1A78D6
:100FD000424B1A70474B1A78414B1A70414B022210
:100FE0001A70474B1B8801339AB2454B1A80384B15
:100FF0001B781A46374B1B78194613465B0013447F
:101000000B445B00344A13447B60344B1B781A4614
:10101000334B1B78194613465B0013440B445B00AB
:101020002D4A13443B607B681A783B681B789A42D0
:1010300011D17B6802225A703B6802225A70294BF8
:1010400000221A7000F00AF90346002B09D01E4B4B
:1010500002221A7005E01C4B01221A701B4AFB6821
:10106000136000F027F9204801F0C5F8164B1B78F3
:10107000022B26D1234B1B68002B0FD1214AFB6882
:1010800013604FF4FC6300939F237F220021002014
:1010900000F0EEFC144801F0AEF812E0194B1B68AA
:1010A000FA68D31AB3F5FA6F0BD3164B00221A6005
:1010B000FFF77AFE00F0FEF80B4801F09CF800E024
:1010C00000BF1037BD4680BDAEA00020B8A00020F4
:1010D000B2A00020B3A00020A0A00020B4A0002057
:1010E000B5A00020B6A0002080000020BEA00020F7
:1010F000BDA00020ADA00020ACA00020BCA000201E
:10110000B0A00020C0A0002080B400AF054B1B6839
:101110001433044A1360034B1B681846BD465DF840
:10112000047B7047C4A00020B0B584B000AF052395
:10113000FB6085E003F0A2FA0246FB68013392FBF4
:10114000F3F101FB03F3D31ABB60FB68414A82FB56
:101150000312DB17D31AFB71FA683E4B83FB023193
:10116000D317C91A0B465B000B44D11A0B46BB714F
:10117000BB68384A82FB0312DB17D31A7B71BA684B
:10118000344B83FB0231D317C91A0B465B000B4467
:10119000D11A0B463B71FA79B9792F4813465B0097
:1011A00013440B4410F81330FB7079793C79FA79C9
:1011B000B879294D0B465B000B44234415F81340C6
:1011C000254913465B0013440344224601F81320CB
:1011D0007A793979204813465B0013440B44FA7836
:1011E00000F81320FA79B9791B4813465B001344C1
:1011F0000B445B0003445B78BB7079793C79FA79E6
:10120000B879154D0B465B000B4423445B002B441F
:101210005C78114913465B00134403445B000B44A4
:1012200022465A707A7939790B4813465B00134489
:101230000B445B000344BA785A70FB68013BFB60C7
:10124000FB68002B3FF776AF00BF00BF1037BD46ED
:10125000B0BD00BF56555555A0A0002080B483B046
:1012600000AF0023FB7119E00023BB7110E0FA7995
:10127000B9790F4813465B0013440B445B000344E9
:101280005B78022B01D000230CE0BB790133BB71EA
:10129000BB79022BEBD9FB790133FB71FB79012B75
:1012A000E2D9012318460C37BD465DF8047B704730
:1012B000A0A0002080B586B002AF002300939F233A
:1012C0007F220021002000F0D3FB0023FB7311E0FC
:1012D0000023BB7308E0BA7BFB7B1146184600F085
:1012E00041F8BB7B0133BB73BB7B022BF3D9FB7B88
:1012F0000133FB73FB7B012BEAD9174B1B78174A91
:1013000012781146184600F09DF894237B8114232F
:101310003B81134B1B883A89934228BF1346FB80BD
:1013200000237B730DE07B7B05339BB25B009BB29C
:1013300079894FF47842184600F0F6FB7B7B013345
:101340007B737B7B9BB2FA889A42ECD800BF00BFCC
:101350001037BD4680BD00BFACA00020ADA000206E
:10136000B0A0002090B589B002AF03460A46FB71D9
:101370001346BB7107F1100407F11202B979F8792D
:1013800007F10C03019307F10E030093234600F0CD
:101390000DFB07F1080307F10A02B979F87900F0AB
:1013A00037FBFA79B97913465B0013440B445B00B1
:1013B000234A13447B617B695B78022B21D0022B8B
:1013C00030DC002B02D0012B09D02BE0788A398A3F
:1013D000FA89BB891F24009400F04AFB2BE0788A2D
:1013E000398AFA89BB894FF6FF74009400F040FBFC
:1013F000788939897B691A784FF4784300F072F85C
:1014000019E0788A398AFA89BB894FF4FC64009420
:1014100000F02EFB788939897B691A78002300F067
:1014200061F808E0788A398AFA89BB891F24009418
:1014300000F01EFB00BF00BF1C37BD4690BD00BFC3
:10144000A0A0002090B587B002AF03460A46FB710A
:101450001346BB7107F10C0407F10E02B979F87954
:1014600007F10803019307F10A030093234600F0F4
:101470009DFAFB89581EBB89591E7B895A1CBB8962
:10148000013B4FF47844009400F06EFB7B89581CBC
:10149000BB89591E7B895A1C3B8901334FF4784420
:1014A000009400F061FB7B89581C3B89591CFB8927
:1014B0005A1E3B8901334FF47844009400F054FBEA
:1014C000FB89581E3B89591CFB895A1EBB89013B6D
:1014D0004FF47844009400F047FB00BF1437BD463A
:1014E00090BD0000B0B586B002AF04460846114674
:1014F0001A462346FB800346BB800B46FB7013460F
:101500003B8008237B73FB78013B072B00F2418271
:1015100001A252F823F000BF39150008CF150008CA
:1015200017160008A5160008771700080518000808
:10153000E51800084F1900080023FB731EE0FB7B31
:101540009AB2FB8813449BB2043B98B2BB88033B1E
:101550009BB23A88194600F0E7FAFB7B9AB2FB8807
:1015600013449BB2043B98B2BB8803339BB23A88C6
:10157000194600F0D9FAFB7B0133FB73FB7B072B89
:10158000DDD90023BB731EE0FB88033B98B2BB7B15
:101590009AB2BB8813449BB2033B9BB23A8819466C
:1015A00000F0C2FAFB88033398B2BB7B9AB2BB88C7
:1015B00013449BB2033B9BB23A88194600F0B4FA3D
:1015C000BB7B0133BB73BB7B052BDDD9E8E1FB881B
:1015D0007A7B5208D2B2981AB988FB887A7B520873
:1015E000D2B21A44BC883B880093234600F0BCFA70
:1015F000F888BB887A7B5208D2B2991AFC88BB88DB
:101600007A7B5208D2B21A443B8800931346224692
:1016100000F0AAFAC4E1F888BB887A7B5208D2B2FB
:10162000991AFB887A7B5208D2B21A44BC883B884C
:101630000093234600F098FAFB887A7B5208D2B2D6
:101640009818B988FC88BB887A7B5208D2B21A44B1
:101650003B8800931346224600F086FAF888BB8840
:101660007A7B5208D2B29918FB887A7B5208D2B2A0
:101670009A1ABC883B880093234600F075FAFB88D1
:101680007A7B5208D2B2981AB988FC88BB887A7BD8
:101690005208D2B29A1A3B8800931346224600F0B1
:1016A00063FA7DE1FB887A7B5208D2B2981ABB8834
:1016B0007A7B5208D2B2991AFB887A7B5208D2B24E
:1016C0009C18BB887A7B5208D2B29A1A3B88009346
:1016D0001346224600F048FAFB887A7B5208D2B2C1
:1016E0009818BB887A7B5208D2B2991AFB887A7B09
:1016F0005208D2B29C18BB887A7B5208D2B21A44E4
:101700003B8800931346224600F02EFAFB887A7B32
:101710005208D2B29818BB887A7B5208D2B2991874
:10172000FB887A7B5208D2B29C1ABB887A7B52081B
:10173000D2B21A443B8800931346224600F014FAB2
:10174000FB887A7B5208D2B2981ABB887A7B5208FF
:10175000D2B29918FB887A7B5208D2B29C1ABB8805
:101760007A7B5208D2B29A1A3B88009313462246DB
:1017700000F0FAF914E1F888BB887A7B5208D2B2FB
:10178000991AFB887A7B5208D2B29C18BB887A7B64
:101790005208D2B21A443B8800931346224600F006
:1017A000E3F9FB887A7B5208D2B29818BB887A7B1F
:1017B0005208D2B29918FB887A7B5208D2B29C1A8E
:1017C000BB887A7B5208D2B21A443B8800931346F6
:1017D000224600F0C9F9FB887A7B5208D2B2981AE7
:1017E000BB887A7B5208D2B29918FC88BB887A7B76
:1017F0005208D2B29A1A3B8800931346224600F050
:10180000B3F9CDE0F888BB887A7B5208D2B2991A36
:10181000FC88BB887A7B5208D2B21A443B8800937A
:101820001346224600F0A0F9FB887A7B5208D2B218
:10183000981AB988FB887A7B5208D2B21A44BC88BD
:101840003B880093234600F08FF9FB887A7B56494A
:10185000A1FB02125208D2B2981ABB887A7B524975
:10186000A1FB02125208D2B2991AFB887A7B4E4C25
:10187000A4FB02425208D2B29C18BB887A7B4A4D24
:10188000A5FB02525208D2B21A443B880093134679
:10189000224600F069F9FB887A7B4349A1FB0212DA
:1018A0005208D2B29818BB887A7B3F49A1FB02123A
:1018B0005208D2B2991AFB887A7B3B4CA4FB0242B5
:1018C0005208D2B29C1ABB887A7B374DA5FB0252D4
:1018D0005208D2B21A443B8800931346224600F0C5
:1018E00043F95DE0FB88981EBB88991EFA88BC8886
:1018F0003B880093234600F037F9FB88981CBB888F
:10190000991EFA88BC883B880093234600F02CF986
:10191000F888B988FA88BB88DC1C3B88009323468A
:1019200000F022F9FB88013B98B2BB88033B9BB2D5
:101930003A88194600F0F8F8FB88013398B2BB8862
:10194000033B9BB23A88194600F0EEF828E0FB888A
:10195000981EBB88191FFA88BC883B8800932346D1
:1019600000F002F9F888B988FB885A1EBC883B88C9
:101970000093234600F0F8F8FB88581EB988FB88CE
:101980009A1CBB881C1D3B880093234600F0ECF892
:1019900006E03A88B988FB88184600F0C5F800BF11
:1019A00000BF1037BD46B0BDABAAAAAA80B485B0AF
:1019B00000AFBA607B600346FB730B46BB73BB7B17
:1019C0009BB21A46D2001A44920013449BB20A33C7
:1019D0009AB2BB681A80FB7B9BB21A465201134431
:1019E0005B009BB20A339AB27B681A80BB681B8883
:1019F00020339AB2BB691A807B681B883D339AB248
:101A0000FB691A8000BF1437BD465DF8047B704740
:101A100090B589B002AFBA607B600346FB730B469A
:101A2000BB7307F1140407F11602B97BF87B07F1C9
:101A30001003019307F1120300932346FFF7B6FF4B
:101A4000FB8A1A467B8A1344DA0F13445B109AB25E
:101A5000BB681A80BB8A1A463B8A1344DA0F1344C8
:101A60005B109AB27B681A8000BF1C37BD4690BDE0
:101A700090B486B000AF0446084611461A46234685
:101A8000FB800346BB800B467B8013463B807A88F5
:101A9000FB889A4205D2FB887B827B88FB807B8A0D
:101AA0007B803A88BB889A4205D2BB883B823B88C0
:101AB000BB803B8A3B80FB887F2B2BD8BB889F2B2E
:101AC0002AD87B887F2B01D97F237B803B889F2B63
:101AD00001D99F233B80BB88FB8216E0FB8ADB0198
:101AE000FB60FB88BB8209E0BA8AFB6813440D499E
:101AF0003A8C21F81320BB8A0133BB82BA8A7B88D7
:101B00009A42F1D9FB8A0133FB82FA8A3B889A42D6
:101B1000E4D902E000BF00E000BF1837BD4690BC2A
:101B2000704700BF8000002080B483B000AF034640
:101B3000FB800B46BB8013467B80FB887F2B0BD83A
:101B4000BB889F2B08D8BB88DA01FB881344054962
:101B50007A8821F8132000E000BF0C37BD465DF8FD
:101B6000047B70478000002080B58AB000AFF86029
:101B7000B9607A603B607A68FB68D31A002BB8BF03
:101B80005B423B62FA687B689A4201DA012301E01A
:101B90004FF0FF33FB613A68BB68D31A002BB8BF24
:101BA0005B425B42BB61BA683B689A4201DA01233F
:101BB00001E04FF0FF337B613A6ABB6913447B62FB
:101BC000FB687F2B10D8BB689F2B0DD8FB68002BC0
:101BD0000ADBBB68002B07DBFB689BB2BA6891B2DB
:101BE0003A8E1846FFF7A0FFFA687B689A4203D145
:101BF000BA683B689A421BD07B6A5B003B613A69DA
:101C0000BB699A4207DB7A6ABB6913447B62FA6854
:101C1000FB691344FB603A693B6A9A42D0DC7A6AFA
:101C20003B6A13447B62BA687B691344BB60C7E7B5
:101C300000BF00BF2837BD4680BD80B582B000AF71
:101C400078607B6898470346002B0FD00A2001F08C
:101C5000E9FD7B6898470346002B07D000BF7B68EF
:101C600098470346002BFAD1012300E000231846D1
:101C70000837BD4680BD000080B485B000AFF86075
:101C8000B9601346FB80FB68002B11DBFB687F2BE0
:101C90000EDCBB68002B0BDBBB689F2B08DCBB6832
:101CA000DA01FB6813440549FA8821F8132000E0A3
:101CB00000BF1437BD465DF8047B704780000020EC
:101CC00080B588B000AFF860B9607A603B60FB68AF
:101CD000002B01DA0023FB60BB68002B01DA002334
:101CE000BB60FA687B681344FB61BA683B681344C5
:101CF000BB61FB69802B01DD8023FB61BB69A02BED
:101D000001DDA023BB61BB687B6112E0FB683B6126
:101D100008E03B8D1A4679693869FFF7ADFF3B69EA
:101D200001333B613A69FB699A42F2DB7B6901331B
:101D30007B617A69BB699A42E8DB00BF00BF20374C
:101D4000BD4680BD80B588B000AFF860B96011466F
:101D50001A460B46FB711346BB80FB791F2B36D905
:101D600097F90730002B32DBFB79A3F120021346F1
:101D70009B001344184A1344BB610023FB7722E005
:101D8000FB7FBA6913441B78FB750023BB7714E013
:101D9000FA7DBB7F42FA03F303F00103002B09D065
:101DA000FA7FFB68D018BA7FBB681344BA8819461B
:101DB000FFF762FFBB7F0133BB77BB7F072BE7D900
:101DC000FB7F0133FB77FB7F042BD9D900E000BFF9
:101DD0002037BD4680BD00BF1059000880B586B0D1
:101DE00000AFF860B9607A607B80FB687B610BE0D4
:101DF0007B685A1C7A601A787B88B9687869FFF723
:101E0000A1FF7B6908337B617B681B78002BEFD1D6
:101E100000BF00BF1837BD4680BD000080B500AFD1
:101E2000044B00221A7000F08FF8034800F0E3F929
:101E300000BF80BDC8A000208000002080B500AF9A
:101E40003C48FFF7FAFE0346002B12D03A4B1B78B2
:101E5000002B03D1384B03221A7005E0364B1B7858
:101E6000013BDAB2344B1A7000F06EF8334800F0E0
:101E7000C2F93348FFF7E1FE0346002B11D02E4B89
:101E80001B7801335A4203F0030302F0030258BFE8
:101E90005342DAB2284B1A7000F056F8274800F087
:101EA000AAF92848FFF7C9FE0346002B40D0224B71
:101EB0001B78032B3BD801A252F823F0CD1E00085B
:101EC000EB1E0008091F0008271F0008FEF724FF6B
:101ED000FEF7D6FFFEF7CAFF0346184600F08BF95F
:101EE000142001F0C1FC00BFF2E700F0B1FD00F0EA
:101EF000F1FD00F05FFE0346184600F07CF90A2071
:101F000001F090FC00BFF2E7FEF7DEF9FEF748FAB9
:101F1000FEF73CFA0346184600F06DF9142001F074
:101F2000A3FC00BFF2E701F091FD01F009FE00BF44
:101F300000BF80BDB5200008C8A0002080000020A0
:101F4000D1200008ED20000880B588B002AF002342
:101F50000093A023802200210020FFF7B1FE282358
:101F6000FB6000237B6188E07B69FA6802FB03F376
:101F70000433BB60FB68083B7B6048F210437B8204
:101F80004FF6FF733B82444B1B781A467B699342A2
:101F900004D14FF6FF737B8200233B827B8A009340
:101FA0007B687422B9680620FFF78AFE7B69032BE1
:101FB00051D801A252F823F0C91F0008ED1F0008F4
:101FC0001120000833200008BB6803F10801324BE0
:101FD0001B781A467B69934201D13B8A01E04FF49A
:101FE00078432E4A1420FFF7F9FE34E0BB6803F172
:101FF0000801294B1B781A467B69934201D13B8A21
:1020000001E04FF4FC63264A1420FFF7E7FE22E0CC
:10201000BB6803F10801204B1B781A467B69934289
:1020200001D13B8A00E01F231E4A1420FFF7D6FE91
:1020300011E0BB6803F10801174B1B781A467B6956
:10204000934201D13B8A01E04FF62053164A1420F7
:10205000FFF7C4FE00BF104B1B781A467B69934202
:1020600008D1BB6803F108014FF478430F4A64209C
:10207000FFF7B4FE7B6901337B617B69032B7FF73C
:1020800073AF4FF4FC630A4A04210820FFF7A6FE51
:1020900000BF1837BD4680BDC8A00020705600089C
:1020A000805600088456000890560008985600088C
:1020B0009C56000880B500AF0821002001F032F9DD
:1020C0000346002B0CBF01230023DBB2184680BD62
:1020D00080B500AF0921002001F024F90346002B50
:1020E0000CBF01230023DBB2184680BD80B500AFD2
:1020F0000A21002001F016F90346002B0CBF012332
:102100000023DBB2184680BD80B500AF012201215B
:10211000002000F0D3FE002300220121002000F067
:1021200049FF01220021002000F0C8FE0023002208
:102130000021002000F03EFF01220021002000F0DD
:10214000FFFF642001F090FB00220021002000F03E
:10215000F7FF012001F088FB01220021002000F0A0
:10216000EFFF642001F080FB00220021002000F03E
:10217000E7FF642001F078FB01220021002000F03D
:10218000DFFF782001F04EFB112000F021F80A203B
:1021900001F048FB3A2000F01BF8052000F005F89C
:1021A000292000F015F800BF80BD80B582B000AFD7
:1021B0000346FB7101220121002000F0C1FFFB79E1
:1021C0009BB2184601F0BEFA00BF0837BD4680BD7D
:1021D00080B582B000AF0346FB71002201210020D0
:1021E00000F0AEFFFB799BB2184601F0ABFA00BFDE
:1021F0000837BD4680BD80B584B000AF78602A2026
:10220000FFF7E6FF0020FFF7D0FF0020FFF7CDFF2C
:102210000020FFF7CAFF7F20FFF7C7FF2B20FFF743
:10222000D7FF0020FFF7C1FF0020FFF7BEFF00200F
:10223000FFF7BBFF9F20FFF7B8FF2C20FFF7C8FF79
:102240000023FB8118E0FB895B007A6813441B883C
:102250007B73FB895B007A6813441B881B0A9BB263
:102260003B733B7B1846FFF7A0FF7B7B1846FFF7CD
:102270009CFFFB890133FB81FB89B3F5A04FE2D3BF
:1022800000BF00BF1037BD4680BD000080B485B0E0
:1022900000AFF860B9601346FB80FB68002B11DBD0
:1022A000FB687F2B0EDCBB68002B0BDBBB689F2B16
:1022B00008DCBB68DA01FB6813440549FA8821F899
:1022C000132000E000BF1437BD465DF8047B704763
:1022D0008000002080B588B000AFF860B9607A60F7
:1022E0003B60FB68002B01DA0023FB60BB68002B1E
:1022F00001DA0023BB60FA687B681344FB61BA68AB
:102300003B681344BB61FB69802B01DD8023FB61CB
:10231000BB69A02B01DDA023BB61BB687B6112E020
:10232000FB683B6108E03B8D1A4679693869FFF725
:10233000ADFF3B6901333B613A69FB699A42F2DBCD
:102340007B6901337B617A69BB699A42E8DB00BF34
:1023500000BF2037BD4680BD80B588B000AFF860B3
:10236000B96011461A460B46FB711346BB80FB79D8
:102370001F2B36D997F90730002B32DBFB79A3F1FD
:10238000200213469B001344184A1344BB610023E8
:10239000FB7722E0FB7FBA6913441B78FB750023AF
:1023A000BB7714E0FA7DBB7F42FA03F303F001032D
:1023B000002B09D0FA7FFB68D018BA7FBB681344A2
:1023C000BA881946FFF762FFBB7F0133BB77BB7F3B
:1023D000072BE7D9FB7F0133FB77FB7F042BD9D990
:1023E00000E000BF2037BD4680BD00BFF05A0008A6
:1023F00080B586B000AFF860B9607A607B80FB681A
:102400007B610BE07B685A1C7A601A787B88B9681C
:102410007869FFF7A1FF7B6908337B617B681B78D4
:10242000002BEFD100BF00BF1837BD4680BD0000B4
:1024300080B400AF034B01221A7000BFBD465DF8A7
:10244000047B7047D9A0002080B400AF034B012269
:102450001A7000BFBD465DF8047B7047DAA000200B
:1024600080B400AF034B01221A7000BFBD465DF877
:10247000047B7047DBA0002080B483B000AF002352
:102480007B6015E000233B600CE014497A6813463A
:102490005B001344CA183B68134400221A703B685F
:1024A00001333B603B68022BEFDD7B6801337B60CF
:1024B0007B68022BE6DD0A4B00221A70094B0022D2
:1024C0001A70094B00221A70084B00221A7000BFC4
:1024D0000C37BD465DF8047B704700BFCCA00020E0
:1024E000D5A00020D6A00020D7A00020D8A0002092
:1024F00080B487B000AF00237B613BE066497A6916
:1025000013465B0013440B441B78002B2FD0624909
:102510007A6913465B0013440B4419785E487A6964
:1025200013465B001344034401331B7899421ED1C8
:1025300059497A6913465B0013440B4401331978F7
:1025400055487A6913465B001344034402331B78F1
:1025500099420CD150497A6913465B0013440B44ED
:102560001B78012B01D101238FE002238DE07B69D1
:1025700001337B617B69022BC0DD00233B6129E0D5
:10258000454A3B6913441B78002B20D0424A3B69E3
:1025900013441A7840493B690B4403331B789A4231
:1025A00015D13D4A3B69134403331A783A493B69D4
:1025B0000B4406331B789A4209D1374A3B691344CE
:1025C0001B78012B01D101235FE002235DE03B6911
:1025D00001333B613B69022BD2DD2F4B1B78002B73
:1025E00013D02D4B1A782C4B1B799A420DD12A4BC4
:1025F0001A79294B1B7A9A4207D1274B1B78012B5A
:1026000001D1012341E002233FE0234B9B78002BC3
:1026100013D0214B9A78204B1B799A420DD11E4B37
:102620001A791D4B9B799A4207D11B4B9B78012B42
:1026300001D1012329E0022327E00023FB730023BB
:10264000BB6019E000237B6010E01349BA681346B1
:102650005B001344CA187B6813441B78002B02D11B
:10266000FB7B0133FB737B6801337B607B68022B50
:10267000EBDDBB680133BB60BB68022BE2DDFB7B9B
:10268000002B01D1032300E0002318461C37BD4670
:102690005DF8047B704700BFCCA0002090B583B0EC
:1026A00000AF0346FB71214B1B78002B37D1204B29
:1026B0001B7819461F4B1B7818461F4A0B465B00B8
:1026C0000B44134403441B78002B2AD1FB79002BC5
:1026D00001D1012000E00220154B1B781946154B53
:1026E0001B781C46144A0B465B000B4413442344DE
:1026F00002461A70FFF7FCFE03461A460B4B1A708F
:102700000A4B1B78002B0DD10C4B1B78002B0CBFF8
:1027100001230023DBB21A46084B1A7002E000BF07
:1027200000E000BF0C37BD4690BD00BFD6A0002022
:10273000D7A00020D8A00020CCA00020D5A0002049
:1027400080B598B002AF00230093A023802200211F
:102750000020FFF7BFFD4FF6FF73A44A05212D208F
:10276000FFF746FE19233B642323FB63FA6B1346F2
:102770005B001344BB63BB6BC3F18003DA0F1344EC
:102780005B107B6300237B6534E07B6DFA6B02FB9F
:1027900003F37A6B1344BB613B6C3B6508E04FF677
:1027A000FF72396DB869FFF771FD3B6D01333B6511
:1027B0003A6CBB6B13443A6D9A42F0DB7B6DFA6B5B
:1027C00002FB03F33A6C13447B617B6BFB6408E010
:1027D0004FF6FF727969F86CFFF758FDFB6C013317
:1027E000FB647A6BBB6B1344FA6C9A42F0DB7B6D33
:1027F00001337B657B6D032BC7DD0023BB6449E0A0
:1028000000237B6440E07B6CFA6B03FB02F27B6B82
:102810001A44FB6BD90F0B445B101344043B3B621F
:10282000BB6CFA6B03FB02F23B6C1A44FB6BD90FD7
:102830000B445B101344043BFB616D49BA6C1346B7
:102840005B001344CA187B6C13441B78012B07D11F
:102850004FF47843674AF969386AFFF7C9FD10E019
:102860006349BA6C13465B001344CA187B6C13446B
:102870001B78022B05D11F235F4AF969386AFFF7DD
:10288000B7FD7B6C01337B647B6C022BBBDDBB6CC7
:102890000133BB64BB6C022BB2DD584B1B78002BA1
:1028A00068D1574B1B781A46FB6B03FB02F27B6B1C
:1028B000134402333B63534B1B781A46FB6B03FBF9
:1028C00002F23B6C13440233FB62FB6B1A1FFB6B7F
:1028D000043B4FF6E0710091F96A386BFFF7FAFCA0
:1028E000474B1B781A46FB6B03FB02F27B6B1A44C7
:1028F000FB6BD90F0B445B101344043BBB62414B91
:102900001B781A46FB6B03FB02F23B6C1A44FB6B11
:10291000D90F0B445B101344043B7B62394B1B788B
:102920001946374B1B781846314A0B465B000B445F
:10293000134403441B78012B07D14FF478432D4AED
:10294000796AB86AFFF754FD14E02E4B1B781946DC
:102950002B4B1B781846264A0B465B000B4413444E
:1029600003441B78022B05D11F23234A796AB86AD6
:10297000FFF73EFD214B1B78002B11D1224B1B781A
:10298000002B07D14FF47843204A82210A20FFF719
:102990002FFD05E01F231E4A82210A20FFF728FD94
:1029A000164B1B78002B43D0144B1B78032B15D0F0
:1029B000032B35DC012B02D0022B08D030E04FF482
:1029C0007843144A82211E20FFF712FD29E01F23BD
:1029D000114A82211E20FFF70BFD22E04FF6E07323
:1029E0000E4A82212320FFF703FD1AE0A8560008B3
:1029F000CCA00020B4560008B8560008D6A000208D
:102A0000D8A00020D7A00020D5A00020BC560008E8
:102A1000CC560008DC560008E4560008EC560008C6
:102A200000BF4FF6FF73084A91210A20FFF7E0FC30
:102A300048F21043054A96210A20FFF7D9FC00BF4F
:102A40005837BD4680BD00BFF45600080C5700083B
:102A500080B500AF0021082000F0B6F80021082062
:102A600000F004F90821184800F05CF9082000F093
:102A7000E5F80021092000F0A7F80021092000F066
:102A8000F5F80921114800F04DF9092000F0D6F8B9
:102A900000210A2000F098F800210A2000F0E6F852
:102AA0000A210B4800F03EF90A2000F0C7F8282060
:102AB00000F076FD172000F073FDFFF7DDFCFFF757
:102AC0003FFE00BF80BD00BF31240008492400083C
:102AD0006124000880B500AF2F4B1B78DBB2002BC0
:102AE0000BD02D4B00221A702C4B1B78002B04D1DD
:102AF0000020FFF7D3FDFFF723FE294B1B78DBB245
:102B0000002B0BD0264B00221A70244B1B78002B75
:102B100004D10120FFF7C2FDFFF712FE214B1B7805
:102B2000DBB2002B36D01F4B00221A701B4B1B78D8
:102B3000002B2BD11C4B1B780133DAB21A4B1A70C5
:102B4000194B1B78022B0FD9174B00221A70174B09
:102B50001B780133DAB2154B1A70144B1B78022B19
:102B600002D9124B00221A70104B1B7819460E4BDB
:102B70001B7818460E4A0B465B000B441344034473
:102B80001B78002BD6D1FFF7DBFD03E0FFF774FCC9
:102B9000FFF7D6FD00BF80BDD9A00020D6A0002041
:102BA000DAA00020DBA00020D8A00020D7A00020C1
:102BB000CCA0002080B400AF024B1846BD465DF8A3
:102BC000047B70478000002080B483B000AF0346D0
:102BD0000A46FB711346BB71174AFB799B08D8B2B2
:102BE0000346023352F82330FA7902F003029200CE
:102BF0000F2101FA02F2D2430F491A40831C41F817
:102C000023200D4AFB799B08D8B20346023352F8C1
:102C10002330B979FA7902F00302920001FA02F244
:102C200005491A43831C41F8232000BF0C37BD46D9
:102C30005DF8047B704700BF0038014080B483B06A
:102C400000AF0346FB71084B1B68FA79012101FABA
:102C500002F21146044A0B43136000BF0C37BD4615
:102C60005DF8047B704700BF003C014080B483B036
:102C700000AF03460A46FB711346BB71BB79022BBA
:102C800032D0022B45DC002B02D0012B16D040E0C5
:102C9000234B9B68FA79012101FA02F2D2431146D3
:102CA0001F4A0B4093601E4BDB68FA79012101FA41
:102CB00002F211461A4A0B43D3602BE0184B9B6873
:102CC000FA79012101FA02F21146154A0B43936089
:102CD000134BDB68FA79012101FA02F2D243114663
:102CE0000F4A0B40D36015E00D4B9B68FA79012128
:102CF00001FA02F211460A4A0B439360084BDB6863
:102D0000FA79012101FA02F21146054A0B43D36018
:102D100000E000BF00BF0C37BD465DF8047B704784
:102D2000003C014080B483B000AF78600B46FB707C
:102D3000FB780F2B04D8FB7804497A6841F82320EC
:102D400000BF0C37BD465DF8047B7047DCA0002057
:102D500080B500AF054B01225A61054B1B68002B63
:102D600002D0034B1B68984700BF80BD003C014068
:102D7000DCA0002080B500AF054B02225A61054B54
:102D80005B68002B02D0034B5B68984700BF80BD97
:102D9000003C0140DCA0002080B500AF054B0422C0
:102DA0005A61054B9B68002B02D0034B9B689847E8
:102DB00000BF80BD003C0140DCA0002080B500AF1A
:102DC000054B08225A61054BDB68002B02D0034BF0
:102DD000DB68984700BF80BD003C0140DCA00020BC
:102DE00080B500AF054B10225A61054B1B69002BC3
:102DF00002D0034B1B69984700BF80BD003C0140D7
:102E0000DCA0002080B582B000AF0523FB711BE081
:102E1000114B5B69FA79012101FA02F21340002B90
:102E20000FD0FB7901229A400B4B5A61FB790B4A78
:102E300052F82330002B04D0FB79084A52F8233093
:102E40009847FB790133FB71FB79092BE0D900BF6F
:102E500000BF0837BD4680BD003C0140DCA000201B
:102E600080B582B000AF0A23FB711BE0114B5B6998
:102E7000FA79012101FA02F21340002B0FD0FB79FD
:102E800001229A400B4B5A61FB790B4A52F82330CE
:102E9000002B04D0FB79084A52F823309847FB797D
:102EA0000133FB71FB790F2BE0D900BF00BF08375E
:102EB000BD4680BD003C0140DCA0002080B483B052
:102EC00000AF0346FB710B46BB7113467B71FB7968
:102ED000002B02D1BB790C2B60D8FB79012B08D1D8
:102EE000BB79032B57D0BB79042B54D0BB79052B6E
:102EF00051D0FB79022B36D0022B4EDC002B02D0B6
:102F0000012B18D049E0284B1B68BA7952000321E5
:102F100001FA02F2D2431146234A0B401360224BBE
:102F20001B687979BA79520001FA02F211461E4AF9
:102F30000B43136032E01D4B1B68BA79520003212A
:102F400001FA02F2D2431146184A0B401360174BA4
:102F50001B687979BA79520001FA02F21146134AD4
:102F60000B4313601AE0124B1B68BA79520003211D
:102F700001FA02F2D24311460D4A0B4013600C4B8A
:102F80001B687979BA79520001FA02F21146084AAF
:102F90000B43136002E000BF00E000BF00BF0C372E
:102FA000BD465DF8047B704700000240000402400B
:102FB0000008024090B482B000AF044608461146B3
:102FC0001A462346FB710346BB710B467B711346C1
:102FD0003B71FB79002B03D1BB790C2B00F2A48051
:102FE000FB79012B0BD1BB79032B00F09A80BB79C5
:102FF000042B00F09680BB79052B00F09280FB79C2
:10300000022B61D0022B00F38E80002B02D0012B0B
:103010002DD088E0474B5B68BA79012101FA02F2B2
:10302000D2431146434A0B405360424B5B68797967
:10303000BA7901FA02F211463E4A0B4353603D4B06
:103040009B68BA795200032101FA02F2D243114679
:10305000384A0B409360374B9B683979BA795200F4
:1030600001FA02F21146334A0B4393605CE0324BA3
:103070005B68BA79012101FA02F2D24311462E4A65
:103080000B4053602C4B5B687979BA7901FA02F2F4
:103090001146294A0B435360274B9B68BA7952006B
:1030A000032101FA02F2D2431146234A0B409360F6
:1030B000214B9B683979BA79520001FA02F2114624
:1030C0001D4A0B4393602FE01C4B5B68BA790121CA
:1030D00001FA02F2D2431146184A0B405360174BD3
:1030E0005B687979BA7901FA02F21146134A0B4307
:1030F0005360124B9B68BA795200032101FA02F225
:10310000D24311460D4A0B4093600C4B9B683979B2
:10311000BA79520001FA02F21146084A0B43936051
:1031200002E000BF00E000BF00BF0837BD4690BC12
:10313000704700BF00000240000402400008024047
:1031400080B483B000AF0346FB710B46BB711346DE
:103150007B71FB79002B02D1BB790C2B5AD8FB7900
:10316000012B08D1BB79032B51D0BB79042B4ED056
:10317000BB79052B4BD0FB79022B32D0022B48DCDC
:10318000002B02D0012B16D043E0254B5B69BA79A6
:10319000012101FA02F2D2431146214A0B40536148
:1031A0001F4B5B697979BA7901FA02F211461C4A20
:1031B0000B4353612EE01B4B5B69BA79012101FA85
:1031C00002F2D2431146174A0B405361154B5B691B
:1031D0007979BA7901FA02F21146124A0B43536126
:1031E00018E0114B5B69BA79012101FA02F2D2436E
:1031F00011460D4A0B4053610B4B5B697979BA79E3
:1032000001FA02F21146084A0B43536102E000BF83
:1032100000E000BF00BF0C37BD465DF8047B70477F
:1032200000000240000402400008024080B483B065
:1032300000AF0346FB710B46BB7113467B71FB79F4
:10324000002B02D1BB790C2B60D8FB79012B08D164
:10325000BB79032B57D0BB79042B54D0BB79052BFA
:1032600051D0FB79022B36D0022B4EDC002B02D042
:10327000012B18D049E0284BDB68BA7952000321B2
:1032800001FA02F2D2431146234A0B40D360224B8B
:10329000DB687979BA79520001FA02F211461E4AC6
:1032A0000B43D36032E01D4BDB68BA795200032137
:1032B00001FA02F2D2431146184A0B40D360174B71
:1032C000DB687979BA79520001FA02F21146134AA1
:1032D0000B43D3601AE0124BDB68BA79520003212A
:1032E00001FA02F2D24311460D4A0B40D3600C4B57
:1032F000DB687979BA79520001FA02F21146084A7C
:103300000B43D36002E000BF00E000BF00BF0C37FA
:10331000BD465DF8047B7047000002400004024097
:103320000008024080B485B000AF03460A46FB7136
:103330001346BB71FB79002B02D1BB790C2B36D81D
:10334000FB79012B08D1BB79032B2DD0BB79042B42
:103350002AD0BB79052B27D0FB79022B1AD0022B60
:1033600024DC002B02D0012B0AD01FE0134B1A697A
:10337000BB7922FA03F3DBB203F00103FB7316E01F
:103380000F4B1A69BB7922FA03F3DBB203F0010396
:10339000FB730CE00B4B1A69BB7922FA03F3DBB227
:1033A00003F00103FB7302E000BF00E000BFFB7B02
:1033B00018461437BD465DF8047B70470000024094
:1033C000000402400008024080B483B000AF03460E
:1033D000FB710B46BB7113467B71FB79002B03D14C
:1033E000BB790C2B00F2CF80FB79012B0BD1BB7981
:1033F000032B00F0BF80BB79042B00F0BB80BB79AE
:10340000052B00F0B780FB79022B7AD0022B00F35A
:10341000B380002B02D0012B3AD0ADE0BB79072B53
:1034200017D85C4B1B6ABA7992000F2101FA02F29D
:10343000D2431146574A0B401362564B1B6A7979A7
:10344000BA79920001FA02F21146524A0B43136212
:1034500094E0BB790F2B00F29180BB79083BBB71E4
:103460004C4B5B6ABA7992000F2101FA02F2D24307
:103470001146484A0B405362464B5B6A7979BA79E8
:10348000920001FA02F21146424A0B43536275E080
:10349000BB79072B17D8404B1B6ABA7992000F21D2
:1034A00001FA02F2D24311463B4A0B4013623A4BF7
:1034B0001B6A7979BA79920001FA02F21146364A0A
:1034C0000B4313625CE0BB790F2B59D8BB79083BE7
:1034D000BB71314B5B6ABA7992000F2101FA02F29B
:1034E000D24311462C4A0B4053622B4B5B6A7979CD
:1034F000BA79920001FA02F21146274A0B4353624D
:103500003EE0BB79072B17D8244B1B6ABA7992008F
:103510000F2101FA02F2D2431146204A0B401362F6
:103520001E4B1B6A7979BA79920001FA02F21146B0
:103530001A4A0B43136225E0BB790F2B22D8BB79C3
:10354000083BBB71154B5B6ABA7992000F2101FAF7
:1035500002F2D2431146114A0B4053620F4B5B6A91
:103560007979BA79920001FA02F211460B4A0B43BB
:10357000536207E000BF06E000BF04E000BF02E0C6
:1035800000BF00E000BF00BF0C37BD465DF8047B04
:10359000704700BF000002400004024000080240E3
:1035A00090B482B000AF0346FB710C4AFB795B0913
:1035B000D8B2034652F82330FA7902F01F020121F3
:1035C00001FA02F21446054A0146234342F821302B
:1035D00000BF0837BD4690BC704700BF00E100E067
:1035E00080B400AF0D4B1B680C4A43F0010313601D
:1035F00000BF0A4B1B685B08002BFAD0074B9B6887
:10360000064A23F003039360044B044A9B689360CB
:1036100000BFBD465DF8047B704700BF0038024024
:1036200080B483B000AF03460A46FB711346BB71FA
:10363000FB79032B36D801A252F823F04D3600084F
:1036400063360008793600088F360008194B1B6B6B
:10365000BA79012101FA02F21146164A0B431363AB
:1036600021E0144B5B6BBA79012101FA02F2114699
:10367000104A0B43536316E00E4B1B6CBA790121C1
:1036800001FA02F211460B4A0B4313640BE0094B9B
:103690005B6CBA79012101FA02F21146054A0B432B
:1036A000536400E000BF00BF0C37BD465DF8047BEB
:1036B000704700BF0038024080B400AF204B1B6849
:1036C0001F4A43F4007313601D4B1B681C4A43F4EC
:1036D000807313601A4B1B68194A43F0040313608C
:1036E000174B1B68164A23F400431360144B1B68E6
:1036F000134A23F400631360114B1B68104A23F034
:10370000800313600E4B1B680D4A43F002031360E5
:103710000B4B1B680A4A23F001031360084B1B681C
:10372000074A23F038031360054B1B68044A43F033
:103730004003136000BFBD465DF8047B704700BFC7
:103740000030014080B483B000AF0346FB8000BF6F
:103750000A4B9B685B08002BFAD0084AFB88D360B1
:1037600000BF064B9B68002BFBD0044BDB689BB271
:1037700018460C37BD465DF8047B704700300140A9
:1037800080B400AF084B1B68074A23F004031360A2
:10379000054B1B68044A23F00103136000BFBD46BC
:1037A0005DF8047B704700BF10E000E080B483B098
:1037B00000AF7860084A7B685360074B00229A602C
:1037C000054B1B68044A43F00103136000BF0C372C
:1037D000BD465DF8047B704710E000E080B483B024
:1037E00000AF0346FB71064B1A68FB795B00044986
:1037F00013430B6000BF0C37BD465DF8047B704778
:1038000010E000E080B400AF054B1B681B0CDBB27E
:1038100003F00103DBB21846BD465DF8047B704738
:1038200010E000E080B582B000AF78600020FFF7C4
:10383000D5FF7B684FF4FA6202FB03F31846FFF7EB
:10384000B5FF00BFFFF7DEFF0346002BFAD0054BA4
:103850001B68044A23F00103136000BF0837BD460C
:1038600080BD00BF10E000E080B582B000AF78609E
:103870000020FFF7B3FF7B685B001846FFF796FF59
:1038800000BFFFF7BFFF0346002BFAD0044B1B68B5
:10389000034A23F00103136000BF0837BD4680BD13
:1038A00010E000E080B500AF084B1B68002B02D091
:1038B000064B1B689847064B1B78DBB2012B02D1E5
:1038C0000020FFF78BFF00BF80BD00BF1CA10020C0
:1038D00020A1002080B500AFFFF782FE0C2103205D
:1038E000FFF79EFE00210020FFF79AFE0E21032025
:1038F000FFF796FEFFF744FFFFF7DEFE02220421EA
:103900000020FFF7DBFA052204210020FFF75CFD11
:10391000022205210020FFF7D1FA0522052100200F
:10392000FFF752FD022206210020FFF7C7FA052209
:1039300006210020FFF748FD022207210020FFF7A3
:10394000BDFA052207210020FFF73EFD00220821D5
:103950000020FFF7B3FA012208210020FFF766FCE0
:10396000002209210020FFF7A9FA012209210020E5
:10397000FFF75CFC00220A210020FFF79FFA0122DA
:103980000A210020FFF752FCFEF7BEFBFEF746FAC5
:10399000FEF754FA1420FFF767FF00BFF8E70000B6
:1039A00080B400AF034B01221A7000BFBD465DF822
:1039B000047B704786A3002080B400AF034B012234
:1039C0001A7000BFBD465DF8047B704787A30020D6
:1039D00080B400AF034B01221A7000BFBD465DF8F2
:1039E000047B704788A3002080B582B000AF00231D
:1039F000FB710EE0FB791F220021184600F0CAFA85
:103A0000FB791F220E21184600F0C4FAFB7901331E
:103A1000FB71FB79132BEDD90023BB710EE0BB7951
:103A20001F221946002000F0B5FABB791F22194663
:103A30000F2000F0AFFABB790133BB71BB790E2BBD
:103A4000EDD900BF00BF0837BD4680BD80B500AFCF
:103A500000210820FFF7B8F800210820FFF706F939
:103A600008213348FFF75EF90820FFF7E7F8002147
:103A70000920FFF7A9F800210920FFF7F7F809212D
:103A80002C48FFF74FF90920FFF7D8F800210A204A
:103A9000FFF79AF800210A20FFF7E8F80A212648E4
:103AA000FFF740F90A20FFF7C9F82820FFF778FD53
:103AB0001720FFF775FD214B0322A3F858221F4B57
:103AC000032283F85A221D4B032283F85B221B4BEF
:103AD0000022A3F85E22194B002283F86022174BC4
:103AE000002283F86122154B0A221A70134B072219
:103AF0005A70124B1B78013BDAB2104B9A700F4B85
:103B00005A780E4BDA700D4B1B78023BDAB20B4B36
:103B10001A710A4B5A78094B5A71002000F086F945
:103B2000FFF762FF00F054FA00F000FA00BF80BD1A
:103B3000A1390008B9390008D139000824A10020B2
:103B400080B500AFFEF7E0FA40F2D24000F068FD29
:103B5000FFF77CFF0D4B93F86032002B07D100F08C
:103B60001BF80B4B1B681846FFF75CFEF2E7094B8E
:103B70001B78DBB2002B04D0064B00221A70FFF733
:103B800065FF1420FFF74EFEE4E700BF24A10020EC
:103B90000400002088A3002080B582B000AF684BED
:103BA00093F86032002B40F0C68000F0CBF8644BF5
:103BB00093F85B22624B83F85A22614B1B883B804F
:103BC0005F4B93F85A32032B1ED801A252F823F010
:103BD000E13B0008EB3B0008F53B0008FF3B000819
:103BE0007B78013BDBB27B700EE07B780133DBB28C
:103BF0007B7009E03B78013BDBB23B7004E03B7833
:103C00000133DBB23B7000BF3B78002B08D03B7820
:103C10000F2B05D07B78002B02D07B780E2B02D1A6
:103C200000F094FA88E03B787A781146184600F064
:103C300029FA0346002B02D000F088FA7CE03A789B
:103C40003F4B93F85C329A421BD17A783C4B93F805
:103C50005D329A4215D13A4B012283F86122384BEA
:103C6000B3F85E320A339AB2354BA3F85E22344B76
:103C7000B3F8583201339AB2314BA3F8582200F00E
:103C8000A7F92F4B93F86132002B28D12C4BB3F8B6
:103C90005832013B2A4A12F81300294BB3F8583224
:103CA000013B274A5B0013445B780022194600F071
:103CB00071F9234BB3F85832013BFB800BE0FB88D2
:103CC0005A1EFB881E491E4830F8122021F8132086
:103CD000FB88013BFB80FB88002BF0D118E0184BE0
:103CE000B3F85832013BBB800BE0BB885A1EBB883F
:103CF0001349134830F8122021F81320BB88013BE8
:103D0000BB80BB88002BF0D10D4B002283F86122D1
:103D10000B4A3B881380FFF767FE094B1B78084A64
:103D200051784FF4FC62184600F034F900F0D8F9ED
:103D300000F0F2F800E000BF0837BD4680BD00BFCC
:103D400024A1002080B500AF344B1B78DBB2002BE0
:103D500026D0324B00221A70314B93F85A32032B83
:103D60005AD801A252F823F0793D00088D3D000891
:103D7000833D0008973D0008294B022283F85B220F
:103D80004AE0274B012283F85B2245E0244B0322C3
:103D900083F85B2240E0224B002283F85B223BE069
:103DA000204B1B78DBB2002B26D01E4B00221A7052
:103DB0001B4B93F85A32032B2ED801A252F823F052
:103DC000D13D0008E53D0008EF3D0008DB3D00085F
:103DD000134B032283F85B221EE0114B012283F870
:103DE0005B2219E00E4B022283F85B2214E00C4B9D
:103DF000002283F85B220FE00B4B1B78DBB2002B19
:103E00000AD0074B93F86032002B05D0064B0022F6
:103E10001A70FFF71BFEFFE700BF80BD86A30020DE
:103E200024A1002087A3002088A3002080B584B0AF
:103E300000AF0346FB800023FB6007E00949FB68F5
:103E4000FA8821F81320FB680133FB60FB68B3F5A7
:103E5000A04FF3D30348FEF7CEF900BF1037BD469D
:103E600080BD00BF8000002080B483B000AF034657
:103E7000FB800B46BB8013467B80FB887F2B0AD8D8
:103E8000BB889F2B07D8BB88DA01FB881344054900
:103E90007A8821F8132000BF0C37BD465DF8047BFB
:103EA000704700BF8000002090B585B000AF044689
:103EB000084611461A462346FB800346BB800B4644
:103EC0007B8013463B80BB88BB8117E0FB88FB816E
:103ED00008E03A8CB989FB891846FFF7C5FFFB89D2
:103EE0000133FB81FA89F9887B880B449A4202DA14
:103EF000FB897F2BEDD9BB890133BB81BA89B98896
:103F00003B880B449A4202DABB899F2BDED900BF63
:103F10001437BD4690BD000080B500AF0248FEF7E3
:103F20006AF900BF80BD00BF8000002080B582B06C
:103F300000AFFFF759FD0023FB8010E0FB88144A17
:103F400012F81300FB88124A5B0013445B784FF4AD
:103F5000FC62194600F01EF8FB880133FB800C4B15
:103F6000B3F85832FA889A42E8D3094B93F85C3296
:103F7000074A92F85D124FF47842184600F00AF8AA
:103F800000F0AEF8FFF7C8FF00BF0837BD4680BDA0
:103F900024A1002080B586B002AF0346FB710B461A
:103FA000BB711346BB80FB799BB2DB00FB81BB7905
:103FB0009BB2DB00BB81B989F889BB8800930723DA
:103FC0000722FFF771FF00BF1037BD4680BD00001C
:103FD00080B582B000AF0023FB713AE000F04EFBE9
:103FE0000246254B83FB02131344D910D317C91A79
:103FF0000B46DB005B1A5B00D11ACBB20133DAB29D
:104000001E4B83F85C2200F039FB01461C4B83FBFE
:1040100001239A10CB17D21A13465B0013449B005E
:104020001344CA1AD3B20133DAB2144B83F85D22B7
:10403000124B93F85C32114A92F85D2211461846F1
:1040400000F020F80346002B0CBF01230023DBB255
:10405000FB71FB79002BC1D0084B93F85C32074A07
:1040600092F85D124FF478421846FFF793FF00BFB5
:104070000837BD4680BD00BF9324499224A100208B
:104080004FECC44E80B485B000AF03460A46FB71C6
:104090001346BB710023FB8113E0FB890F4A12F822
:1040A0001330FA799A4209D1FB890C4A5B00134418
:1040B0005B78BA799A4201D1012309E0FB89013387
:1040C000FB81064BB3F85832FA899A42E5D30023B4
:1040D00018461437BD465DF8047B704724A10020C4
:1040E00080B584B002AF002300931423802278218E
:1040F0000020FFF7D9FE134BB3F85E32124AA2FB41
:104100000323DB08BB800023FB800FE0FB88DB0080
:104110009BB2053398B24FF6E07300930623062254
:104120007D21FFF7C1FEFB880133FB80FA88BB8845
:104130009A4202D2FB880E2BE8D900BF0837BD4651
:1041400080BD00BF24A10020CDCCCCCC80B584B0F4
:1041500002AFB94B012283F860220020FFF766FE10
:104160004FF478430093142304221E210A20FFF702
:104170009BFE4FF47843009304230F221E210A2054
:10418000FFF792FE4FF47843009304230F222E2171
:104190000A20FFF789FE4FF4784300930C23042292
:1041A00026211520FFF780FE4FF478430093042367
:1041B000082226211120FFF777FE4FF47843009361
:1041C000142304221E211E20FFF76EFE4FF47843B5
:1041D000009304230F221E211E20FFF765FE4FF4DB
:1041E0007843009304230F2226211E20FFF75CFE54
:1041F0004FF4784300931023042222212920FFF753
:1042000053FE4FF478430093142304221E213220DE
:10421000FFF74AFE4FF47843009304230F221E2138
:104220003220FFF741FE4FF4784300930823042225
:1042300022213920FFF738FE4FF4784300931423EE
:1042400004221E213D20FFF72FFE4FF478430093F8
:10425000142304221E214620FFF726FE4FF4784344
:10426000009304230F221E214620FFF71DFE4FF46A
:104270007843009304230A2226214620FFF714FEE8
:104280004FF47843009304230F222E214620FFF79A
:104290000BFE4FF478430093142304223C210A20A0
:1042A000FFF702FE4FF47843009304230F223C21D2
:1042B0000A20FFF7F9FD4FF47843009304230F22FF
:1042C0004C210A20FFF7F0FD4FF4784300931423AC
:1042D00004223C211520FFF7E7FD4FF478430093BB
:1042E000102304223C211E20FFF7DEFD4FF478430B
:1042F00000930423042248212220FFF7D5FD4FF428
:1043000078430093042304224C212620FFF7CCFDA0
:104310004FF4784300930423042248212A20FFF716
:10432000C3FD4FF478430093102304223C212E2038
:10433000FFF7BAFD4FF478430093142304223C2185
:104340003720FFF7B1FD4FF47843009304230F2289
:104350003C213720FFF7A8FD4FF478430093042356
:104360000A2244213720FFF79FFD4FF47843009342
:1043700004230F224C213720FFF796FD4FF478439A
:104380000093142304223C214B20FFF78DFD4FF4B2
:104390007843009304230F223C214B20FFF784FD38
:1043A0004FF47843009304230A2244214B20FFF763
:1043B0007BFD4FF4784300930C2304223C215620CC
:1043C000FFF772FD4FF47843009304230422482141
:1043D0005220FFF769FD4FF4784300930423042231
:1043E0004C215620FFF760FD134BB3F85E32134AA1
:1043F000A2FB0323DB08BB800023FB800FE0FB88CC
:10440000DB009BB2143398B24FF6E073009306239F
:1044100006225A21FFF748FDFB880133FB80FA880A
:10442000BB889A4202D2FB88092BE8D9FFF774FDBA
:1044300000BF0837BD4680BD24A10020CDCCCCCC28
:1044400080B400AF01231846BD465DF8047B704779
:1044500080B582B000AF7860396000F0A1FA034601
:1044600016221A604FF0FF3318460837BD4680BD4C
:1044700080B582B000AF78604FF0FF317868FFF709
:10448000E7FF00BFFDE780B586B000AFF860B96018
:104490007A6000237B610AE0AFF300800146BB68CD
:1044A0005A1CBA60CAB21A707B6901337B617A699F
:1044B0007B689A42F0DB7B6818461837BD4680BDA2
:1044C00080B586B000AFF860B9607A6000237B6188
:1044D00009E0BB685A1CBA601B781846AFF300802D
:1044E0007B6901337B617A697B689A42F1DB7B6887
:1044F00018461837BD4680BD80B483B000AF7860E1
:104500004FF0FF3318460C37BD465DF8047B70470B
:1045100080B483B000AF786039603B684FF40052DC
:104520005A60002318460C37BD465DF8047B70477F
:1045300080B483B000AF7860012318460C37BD46C5
:104540005DF8047B704780B485B000AFF860B96057
:104550007A60002318461437BD465DF8047B704727
:1045600080B586B000AF7860144A154BD31A7B61D2
:104570007B693B61134B1B68002B02D1114B124A24
:104580001A60104B1A687B6813443A699A4207D242
:1045900000F006FA03460C221A604FF0FF3309E0E0
:1045A000084B1B68FB60074B1A687B681344054A7D
:1045B0001360FB6818461837BD4680BD0000012017
:1045C000000400008CA30020E0A400200D488546D4
:1045D000AFF300800C480D490D4A002302E0D45887
:1045E000C4500433C4188C42F9D30A4A0A4C00233D
:1045F00001E013600432A242FBD300F0D7F9FFF7C9
:1046000069F9FEE70000012000000020640000209E
:10461000C05D000864000020DCA40020FEE700006C
:1046200038B5104B1D682B6B0446B3B9182000F049
:104630004DFA0246286320B90B4B0C48462100F086
:10464000DDF90B490B4BC0E900130B4B83600B23C7
:10465000838100210120C2E904012B6B00221C612F
:104660005A6138BD14000020D05C0008E75C0008E7
:104670000E33CDAB34126DE6ECDE0500164B10B5F3
:104680001C68236BB3B9182000F020FA024620639F
:1046900020B9124B1248522100F0B0F91149124BC7
:1046A000C0E90013114B83600B238381002101209B
:1046B000C2E90401216B0E480B694C690D4A58434D
:1046C00002FB0400A3FB0232013340EB0200C1E90C
:1046D000043020F0004010BD14000020D05C000821
:1046E000E75C00080E33CDAB34126DE6ECDE05005E
:1046F0002DF451582D7F954C002310B50446C0E988
:104700000033C0E90433836081814366C2818361E1
:10471000194608225C3000F0F4F80D4B63620D4B33
:10472000A3620D4BE3620D4B23630D4B24629C424D
:1047300006D003F16802944202D0D0339C4205D1E6
:1047400004F15800BDE8104000F054B910BD00BF9E
:104750007D4800089F480008D7480008FB4800082B
:1047600090A30020024A0349034800F069B800BF43
:1047700008000020414D00081800002041680C4B43
:10478000994210B5044601D000F0DAFAA168094B4D
:10479000994202D0204600F0D3FAE168064B9942D4
:1047A00004D02046BDE8104000F0CABA10BD00BFDA
:1047B00090A30020F8A3002060A4002010B50B4BAC
:1047C0000B4C0C4A1A60204600220421FFF794FF8C
:1047D00004F1680001220921FFF78EFF04F1D000E7
:1047E0000222BDE810401221FFF786BFC8A40020B6
:1047F00090A3002065470008014800F0FCB800BF06
:10480000D1A40020014800F0F7B800BFD1A40020D7
:1048100010B50446FFF7F0FF236A1BB1BDE8104056
:10482000FFF7F0BF044B2362044B1B68002BF5D14C
:10483000FFF7C4FFF2E700BF7D470008C8A40020CF
:104840002DE9F8430746884614460026D4E9019529
:10485000B9F1010905D52468002CF7D13046BDE82F
:10486000F883AB89012B07D9B5F90E30013303D09A
:1048700029463846C04706436835E9E710B50C4677
:10488000B1F90E1000F068F80028ABBF636DA38982
:104890001B1823F48053ACBF6365A38110BD2DE9C1
:1048A000F0411F468B89DB0505460C46164605D5AB
:1048B000B1F90E100223002200F03CF8A389B4F9EC
:1048C0000E1023F48053A38132463B462846BDE8B0
:1048D000F04100F053B810B50C46B1F90E1000F0DD
:1048E00029F8431CA38915BF606523F4805343F462
:1048F0008053A38118BFA38110BDB1F90E1000F041
:1049000009B802440346934200D1704703F8011BE3
:10491000F9E7000038B5064D0023044608462B6031
:10492000FFF7EAFD431C02D12B6803B1236038BDB9
:10493000CCA4002038B5074D044608461146002295
:104940002A601A46FFF7FFFD431C02D12B6803B112
:10495000236038BDCCA4002038B5074D0446084676
:10496000114600222A601A46FFF78DFD431C02D132
:104970002B6803B1236038BDCCA4002038B5074DA7
:1049800004460846114600222A601A46FFF798FDA1
:10499000431C02D12B6803B1236038BDCCA4002096
:1049A000014B1868704700BF1400002070B50D4D12
:1049B0000D4C641BA4100026A64209D10B4D0C4CD3
:1049C00000F038FE641BA4100026A64205D170BD7D
:1049D00055F8043B98470136EEE755F8043B9847F5
:1049E0000136F2E7B85D0008B85D0008B85D000860
:1049F000BC5D000870477047704700001FB5144643
:104A00001A46094B1B680546D8684CB1074B009104
:104A1000CDE9013406492B4600F0BAF900F0DAF985
:104A2000044B1C46F3E700BF140000203F5D000864
:104A30004C5D00087A5D000838B50546002941D074
:104A400051F8043C0C1F002BB8BFE41800F0E8F844
:104A50001D4A136833B9636014602846BDE83840C6
:104A600000F0E4B8A34208D9206821188B4201BFA6
:104A700019685B6809182160EDE71A465B680BB19D
:104A8000A342FAD911685018A0420BD12068014402
:104A9000501883421160E0D118685B685360084485
:104AA0001060DAE702D90C232B60D6E720682118C2
:104AB0008B4204BF19685B68636004BF09182160FA
:104AC0005460CAE738BD00BFD8A40020024B01469D
:104AD000186800F025B800BF1400002070B50F4E14
:104AE0000C463168054611B900F064F93060214682
:104AF000284600F05FF9431C03D14FF0FF342046F5
:104B000070BDC41C24F00304A042F8D0211A28462A
:104B100000F050F90130F2D1EFE700BFD4A400203B
:104B20002DE9F843CD1C25F0030508350C2D38BFC1
:104B30000C25002D064601DBA94204D90C23336065
:104B40000020BDE8F883DFF8D48000F069F8D8F8D9
:104B500000301C4644BB29463046FFF7BFFF431CCC
:104B6000044658D1D8F800402746002F43D1002CE6
:104B70004BD023683946304604EB030900F01AF99C
:104B8000814542D121686D1A29463046FFF7A6FFBC
:104B900001303AD023682B442360D8F800305A689B
:104BA00062BBC8F800700FE02268521B20D40B2AA9
:104BB00017D96119A342256018BF5960636808BFFF
:104BC000C8F8001062514B60304600F02FF804F135
:104BD0000B00231D20F00700C21A1CBF1B1AA35094
:104BE000AFE76268A3420CBFC8F800205A60EBE749
:104BF00023466468AEE73C467F68B6E71A465B68C2
:104C0000A342FBD100235360DEE70C233360304620
:104C100000F00CF894E70560D6E700BFD8A40020A8
:104C20000148FFF7E8BE00BFD0A400200148FFF70D
:104C3000E3BE00BFD0A40020B1F90C202DE9F04163
:104C4000160705460C4654D44B68002B02DC0B6C4F
:104C5000002B48DDE66A002E45D0002312F4805276
:104C60002F68216A2B6030D0626DA389590705D562
:104C70006368D21A636B0BB1236CD21A0023E66A05
:104C8000216A2846B047431CA38906D129681D29FB
:104C90002BD82A4ACA40D60727D500226260D904F9
:104CA0002269226004D5421C01D12B6803B96065DA
:104CB000616B2F60B9B104F14403994202D02846D8
:104CC000FFF7BAFE002363630DE001232846B047D7
:104CD0000246501CC9D12B68002BC6D01D2B01D019
:104CE000162B1ED12F60002022E043F040031BB2A0
:104CF0001BE00F69002FF6D093070E6808BF4B69C1
:104D00000F6018BF0023A6EB07088B60B8F1000FF7
:104D1000E9DD216AA66A43463A462846B04700289C
:104D200008DCB4F90C3043F04003A3814FF0FF30AE
:104D3000BDE8F0810744A8EB0008E7E70100402048
:104D400038B50B6905460C4613B90025284638BD11
:104D500018B1036A0BB9FFF75BFDB4F90C30002BF7
:104D6000F3D0626ED00704D4990502D4A06DFFF78A
:104D700042FE28462146FFF75FFF636EDA070546CD
:104D8000E4D4A3899B05E1D4A06DFFF735FEDDE7F0
:104D90000EB403B5014603AB054853F8042B006875
:104DA000019300F047F802B05DF804EB03B07047E0
:104DB0001400002038B5064D0023044608462B6039
:104DC000FFF7CEFB431C02D12B6803B1236038BD33
:104DD000CCA4002008B5062000F08CFB0120FFF7D2
:104DE00047FB9368013B002B10B4936008DA946989
:104DF000A34201DB0A2903D15DF8044B00F0BEBADF
:104E00001368581C1060197008465DF8044B704711
:104E1000F8B506460F461446D518AC4201D100201D
:104E200007E014F8011B3A463046FFF7DAFF431C4F
:104E3000F3D1F8BD2DE9F04F0D469DB014469846CC
:104E4000064618B1036A0BB9FFF7E2FC6B6ED9078F
:104E500005D4AB899A0502D4A86DFFF7CCFDAB89C8
:104E60001B0701D52B699BB92946304600F0C4FACF
:104E700070B16B6EDC0704D54FF0FF301DB0BDE89C
:104E8000F08FAB899805F7D4A86DFFF7B5FDF3E770
:104E90000023099320238DF82930CDF80C8030238E
:104EA000DFF8AC818DF82A304FF0010923469A468D
:104EB00013F8012B0AB1252AF9D1BAEB040B0BD058
:104EC0005B46224629463046FFF7A2FF013000F03C
:104ED000A780099A5A4409929AF80030002B00F0F2
:104EE0009F8000234FF0FF32CDE905230AF1010A2C
:104EF000049307938DF853301A935446052214F8FF
:104F0000011B5348FBF76CF9049AD8B9D10644BF8A
:104F100020238DF85330130744BF2B238DF85330D3
:104F20009AF800302A2B15D0079A544600204FF0EB
:104F30000A0C214611F8013B303B092B4BD9B0B18B
:104F4000079214E0A0EB080309FA03F31343049358
:104F5000A246D2E7039B191D1B680391002BBBBF20
:104F60005B4242F0020207930793B8BF0492237892
:104F70002E2B0AD163782A2B32D1039B1A1D1B6872
:104F8000039243EAE37302340593DFF8D4A0217857
:104F900003225046FBF724F938B1049BA0EB0A002A
:104FA0004022824013430134049314F8011B294822
:104FB0008DF828100622FBF713F900283FD0264B66
:104FC0001BBB039B073323F0070308330393099BA1
:104FD0003B4409936AE70CFB02320C460120A8E728
:104FE00000230134059319464FF00A0C204610F8AF
:104FF000012B303A092A03D9002BC6D00591C4E70A
:105000000CFB012104460123F0E703AB00932A4681
:10501000124B04A93046AFF300800746781CD6D166
:105020006B6ED90705D4AB899A0502D4A86DFFF73A
:10503000E3FCAB895B063FF51FAF09981EE703ABA6
:1050400000932A46054B04A9304600F079F8E4E7BE
:105050007B5D0008855D000800000000114E00081F
:10506000815D00082DE9F047164698468A680B696D
:10507000DDF820909342B8BF1346336091F8432087
:1050800007460C460AB1013333602368990642BFD4
:10509000336802333360256815F0060506D104F144
:1050A000190AE36832689B1AAB4226DC94F8433055
:1050B0002268003B18BF012392062BD404F143025F
:1050C00041463846C84701301ED02368226903F0A4
:1050D0000603042B02BFE5683368ED1AA3680CBF12
:1050E00025EAE57500259342C4BF9B1AED180026FA
:1050F0001A34B5421AD1002008E001235246414635
:105100003846C847013003D14FF0FF30BDE8F08783
:105110000135C6E7E1185A1C302081F843002244CB
:1051200094F8451082F843100233C7E70123224662
:1051300041463846C8470130E6D00136D9E700007D
:105140002DE9FF470F7E0C9E782F914680460C4636
:105150009A4601F1430207D8622F0AD8002F00F0C7
:10516000D180582F00F0B88004F1420684F84270D4
:105170003AE0A7F16303152BF6D801A151F823F00B
:10518000D9510008ED510008695100086951000823
:105190006951000869510008ED5100086951000883
:1051A000695100086951000869510008EB52000874
:1051B00017520008A55200086951000869510008FB
:1051C0000D53000869510008175200086951000882
:1051D00069510008AD52000833681A1D1B6832601F
:1051E00004F1420684F8423001239CE033682068D1
:1051F000191D3160060601D51D6803E04506FBD583
:10520000B3F90050002D03DA2D236D4284F84330AA
:1052100058480A2311E021683368080653F8045BF4
:1052200002D4490648BFADB26F2F5248336014BF55
:105230000A230823002184F843106668A660002E24
:1052400005DB21682E4321F0040121604BD0164676
:10525000B5FBF3F103FB1157C75D06F8017D2F463F
:10526000BB420D46F4D9082B0BD12368DF0708D5C4
:10527000236961689942DEBF302306F8013C06F1DC
:10528000FF36921B2261CDF800A04B4603AA2146AF
:105290004046FFF7E7FE01304AD14FF0FF3004B03F
:1052A000BDE8F087236843F0200323603248782765
:1052B00084F84570236831681F0651F8045B02D4F6
:1052C0005F0648BFADB23160D90744BF43F0200349
:1052D00023601DB11023ADE72648E9E7236823F0DA
:1052E00020032360F6E71646BDE733682568616949
:1052F000181D30602E061B6801D5196002E0680693
:10530000FBD51980002323611646BCE733681A1DBC
:1053100032601E68626800213046FAF761FF08B10A
:10532000801B606063682361002384F84330AAE730
:105330002369324649464046D0470130ADD0236804
:105340009B0713D4E068039B9842B8BF1846A6E7B2
:105350000123324649464046D04701309DD00135B1
:10536000E36803995B1AAB42F2DCEBE7002504F13A
:105370001906F5E78C5D00089D5D0008F8B50E463E
:105380001446054618B1036A0BB9FFF741FAA36941
:10539000A360A3891A0701D5236943B9214628468A
:1053A00000F02AF818B14FF0FF373846F8BD2368EF
:1053B0002269981A6369F6B28342374605DC2146B2
:1053C0002846FFF7BDFC0028EDD1A368013BA36090
:1053D00023685A1C22601E706269431C9A4204D0E2
:1053E000A389DB07E1D50A2EDFD121462846FFF746
:1053F000A7FC0028D9D0D6E738B5294B0546186850
:105400000C4618B1036A0BB9FFF702FAB4F90C3075
:10541000190722D4DA0607D409222A6043F0400390
:10542000A3814FF0FF3033E0580712D5616B41B1D3
:1054300004F14403994202D02846FFF7FDFA002305
:105440006363A38923F02403A3810023636023699A
:105450002360A38943F00803A38123694BB9A3897F
:1054600003F42073B3F5007F03D02146284600F0F3
:1054700083F8B4F90C3013F001020AD00022A260C4
:1054800062695242A261226942B913F08000C5D11B
:1054900038BD990758BF6269A260F4E70020F7E7BA
:1054A000140000201F2938B505460C4604D91623E0
:1054B00003604FF0FF3038BDC26B12B152F821309B
:1054C0004BB9284600F030F8224601462846BDE890
:1054D000384000F017B8012B0AD0591C03D116230D
:1054E00003600120E7E7002142F824102046984796
:1054F0000020E0E7024B01461868FFF7D3BF00BF6A
:105500001400002038B5074D002304460846114614
:105510002B60FEF79DFF431C02D12B6803B1236073
:1055200038BD00BFCCA40020FEF78ABF70B50C4682
:10553000B1F90E10002996B015461E460DDAA38962
:1055400013F0800F4FF0000114BF40234FF480632D
:10555000002031602B6016B070BD6A4600F048F83C
:105560000028ECDB019901F47041A1F50053594288
:1055700059414FF48063EBE78B89F7B59D070646E9
:105580000C4607D504F147032360236101236361BF
:1055900003B0F0BD01AB6A46FFF7C8FF009F0546A8
:1055A00039463046FFF7BCFA48B9B4F90C309A05D1
:1055B000EED423F0030343F00203A381E2E7A389BF
:1055C000206043F08003A381019BC4E904075BB121
:1055D000B4F90E10304600F01DF828B1A38923F06D
:1055E000030343F00103A381A3891D43A581CFE7F2
:1055F00038B5074D00230446084611462B60FEF7D8
:1056000087FF431C02D12B6803B1236038BD00BF64
:10561000CCA4002038B5064D0023044608462B6074
:10562000FEF786FF431C02D12B6803B1236038BD0F
:10563000CCA40020F8B500BFF8BC08BC9E4670475B
:0C564000F8B500BFF8BC08BC9E467047DF
:10564C00513A0000533A0000434F52524543542103
:10565C000000000057524F4E47210000416E7377F7
:10566C0065723A004D454D4F5259204D41544348B7
:10567C0000000000584F00004D415448205155493E
:10568C005A000000534E414B450000003E00000004
:10569C0047414D4520485542000000005449432DD8
:1056AC005441432D544F4500580000004F0000005A
:1056BC00506C617965722058205475726E00000030
:1056CC00506C61796572204F205475726E00000029
:1056DC00582057494E5321004F2057494E53210013
:1056EC0044524157210000005072657373204E459F
:1056FC00585420746F2072657374617274000000CA
:10570C00583A506C616365204F3A506C6163652068
:10571C004E4558543A4D6F7665000000000000006D
:10572C000000005F00000007000700147F147F14C6
:10573C00242A7F2A1223130864623649552250000A
:10574C0005030000001C2241000041221C0014082B
:10575C003E081408083E08080050300000080808ED
:10576C000808006060000020100804023E51494502
:10577C003E00427F400042615149462141454B3138
:10578C001814127F1027454545393C4A49493001C8
:10579C00710905033649494936064949291E00361F
:1057AC003600000056360000081422410014141470
:1057BC0014140041221408020151090632495951AE
:1057CC003E7E1111117E7F494949363E41414122AD
:1057DC007F4141221C7F494949417F090909013E0A
:1057EC004149497A7F0808087F00417F41002040E9
:1057FC00413F017F081422417F404040407F020C12
:10580C00027F7F0408107F3E4141413E7F09090918
:10581C00063E4151215E7F091929464649494931C5
:10582C0001017F01013F4040403F1F2040201F3FAE
:10583C004038403F6314081463070870080761512F
:10584C00494543000000000000000000000000007B
:10585C00000000000000000000000000000000003C
:10586C00000000000000000000000000000000002C
:10587C00000000000000000000000000000000001C
:10588C00000000000000000000000000000000000C
:10589C0000000000000000000000000000000000FC
:1058AC0000000000000000000000000000000000EC
:1058BC0000000000000000000000000000000000DC
:1058CC0000000000000000000000000000000000CC
:1058DC0000000000000000000000000000000000BC
:1058EC0000000000000000000000000000000000AC
:1058FC000000000000000000000000000102030492
:10590C0005060708000000000000005F000000070B
:10591C00000700147F147F14242A7F2A12231308F3
:10592C00646236495522500005030000001C2241D8
:10593C00000041221C0014083E081408083E080808
:10594C0000503000000808080808006060000020C3
:10595C00100804023E5149453E00427F400042611E
:10596C005149462141454B311814127F10274545AA
:10597C0045393C4A494930017109050336494949C1
:10598C0036064949291E00363600000056360000FE
:10599C000814224100141414141400412214080297
:1059AC0001510906324959513E7E1111117E7F4930
:1059BC004949363E414141227F4141221C7F4949A0
:1059CC0049417F090909013E4149497A7F08080884
:1059DC007F00417F41002040413F017F081422415C
:1059EC007F404040407F020C027F7F0408107F3EC6
:1059FC004141413E7F090909063E4151215E7F0923
:105A0C00192946464949493101017F01013F40406E
:105A1C00403F1F2040201F3F4038403F6314081474
:105A2C0063070870080761514945430000000000F6
:105A3C00000000000000000000000000000000005A
:105A4C00000000000000000000000000000000004A
:105A5C00000000000000000000000000000000003A
:105A6C00000000000000000000000000000000002A
:105A7C00000000000000000000000000000000001A
:105A8C00000000000000000000000000000000000A
:105A9C0000000000000000000000000000000000FA
:105AAC0000000000000000000000000000000000EA
:105ABC0000000000000000000000000000000000DA
:105ACC0000000000000000000000000000000000CA
